:020000040800F2
:10000000580B002001010008090100080B0100083D
:100010000D0100080F010008110100080000000098
:1000200000000000000000000000000013010008B4
:10003000150100080000000017010008211F00083A
:100040001B0100081B0100081B0100081B01000820
:100050001B0100081B0100081B0100081B01000810
:100060001B0100081B0100081B0100081B01000800
:100070001B0100081B0100081B0100081B010008F0
:100080001B0100081B0100081B0100081B010008E0
:100090001B0100081B0100081B0100081B010008D0
:1000A0001B0100081B0100081B0100081B010008C0
:1000B0001B0100081B0100081B0100081B010008B0
:1000C0001B0100081B0100081B0100081B010008A0
:1000D0001B0100081B0100081B0100081B01000890
:1000E0000F0200081B0100081B010008DFF80CD0FC
:1000F00000F06CF8004800470D260008580B00205F
:100100000648804706480047FEE7FEE7FEE7FEE7B1
:10011000FEE7FEE7FEE7FEE7FEE7FEE7751F0008E5
:10012000ED000008202A04DB203A21FA02F0002129
:10013000704721FA02F3D040C2F1200291400843F7
:1001400019467047D2B201E000F8012B491EFBD2DC
:1001500070470022F6E710B513460A4604461946D2
:10016000FFF7F0FF204610BD2DE9F05F05460020A7
:1001700092469B4688460646814640241BE0284618
:10018000414647462246FFF7CDFF53465A46C01A1E
:10019000914110D311461846224600F029F82D1A35
:1001A00067EB01084F4622460120002100F020F8AD
:1001B00017EB00094E41201EA4F10104DFDC484684
:1001C00031462A464346BDE8F09F0000064C074DE5
:1001D00006E0E06840F0010394E807009847103417
:1001E000AC42F6D3FFF786FF1C5100083C510008D3
:1001F000202A04DB203A00FA02F1002070479140E7
:10020000C2F1200320FA03F31943904070474FF4E2
:10021000004000F03BB8704770B5044600F034F978
:100220000546601C02D004480078044400F02CF914
:10023000401BA042FAD370BD2000002070B5B0F57D
:10024000004F1BD10E4D6878401C6870072001F0EC
:1002500031FB0446400611D501220221094800F075
:100260000EF90A2028700C220749612001F048FC91
:100270002146BDE87040072001F046BB70BD00007C
:1002800000000020000801404C000020044910B587
:100290000A68024202D00860FFF7D0FF10BD0000DC
:1002A000140401402DE9F84FDFF8A491002409F16E
:1002B000040A0AF1040B23464FF00F080BF1040E59
:1002C000BEE00127A7403A40BA4272D1DFF884C1AC
:1002D0004D68A5EB0C0665452BD00DDC032D34D005
:1002E00005DC35B3012D19D0022D2FD11BE0112DC6
:1002F00016D0122D2AD119E0B6F5881F19D006DCC8
:10030000B6F5803F15D0B6F5801F1FD111E0B6F5C8
:10031000001F0ED0B6F5041F18D10AE0CB6815E017
:10032000CB681B1D12E0CB6808330FE0CB680C33A1
:100330000CE08B682BB1012B4FF0080303D0476111
:1003400004E0042302E0076100E00023FF2A01D853
:10035000064601E000F104064FEA840501D9A5F143
:100360002005376808FA05FC27EA0C0703FA05F5AB
:1003700047EA050737604D68ED0060D5364DAE6938
:1003800046F00106AE61AD6924F0030605F00105F3
:100390000095324D7719BE68A5072D0F08FA05FCA8
:1003A00026EA0C06DFF8B8C0604503D14FF0000C18
:1003B00017E044E0DFF8ACC0604502D14FF0010C1B
:1003C0000FE0DFF8A4C0604502D14FF0020C08E056
:1003D000DFF898C0604502D14FF0030C01E04FF008
:1003E000040C0CFA05FC4CEA060CC7F808C04D6872
:1003F000D9F80060ED034D4601D5164300E0964361
:100400002E604D68DAF80060AD03554601D51643FD
:1004100000E096432E604D68DBF80060ED025D461B
:1004200001D5164300E096432E604D68DEF800606B
:10043000AD02754601D5164300E096432E60641C5C
:100440000A6832FA04F57FF43CAFBDE8F88F00008B
:1004500000040140000011100010024000000140A3
:1004600000080140000C0140001001400014014050
:10047000C2680A4201D041617047016170470AB108
:10048000016170470904FBE701488068704700007C
:100490002000002070B504001BD094F83D0000251A
:1004A00020B984F83C50204600F0F2F9242084F86A
:1004B0003D002068016821F00101016000F068FB47
:1004C0004D4B6168994201D84C4900E04C49884243
:1004D00001D2012070BD4B492268B0FBF1F1566892
:1004E00026F03F060E43566062689A4206D94FF4E2
:1004F000967251434FF47A72B1FBF2F12268491CB3
:10050000166A26F03F06314311626168994210D89D
:100510004900401EB0FBF1F2521CC2F30B02042A48
:1005200001D2042022E0B0FBF1F0401CC0F30B002C
:100530001CE0A268F2B301EBC10303EB0116431EFA
:10054000B3FBF6F35B1C43F480431B0549D092B325
:1005500001EBC10202EB0111401EB0FBF1F0401CA7
:10056000C0F30B0040F4804040F400402168CA69A9
:100570004CF6FF739A431043C861D4E90710014356
:100580002068026822F0C00211430160D4E903012F
:1005900001432068826848F2FF339A431143816027
:1005A000D4E9051001432068C26822F0FF0211431C
:1005B000C16001E00EE016E02068016841F0010131
:1005C00001602564202084F83D00256384F83E50B6
:1005D000002070BD01EB4106431EB3FBF6F35B1C2C
:1005E000B3E70120C2E701EB4101401EB0FBF1F08F
:1005F000401CC0F30B00B7E7A086010080841E00FA
:1006000000093D0040420F002DE9FF4F81B01F4619
:1006100093460446FFF738FF054694F83D0001264F
:1006200020287DD1192301224C492046009500F055
:10063000CDFF002874D194F83C00012870D001202F
:1006400084F83C0020680168C90703D1016841F0C3
:10065000010101602068016821F40061016024202B
:1006600084F83D004FF0000AC4F840A03C48E06226
:100670004FF020092068016841F4807101603B4619
:1006800000224FF001112046009500F09FFF002846
:1006900057D10298216800F0FE000861FFF7F4FED0
:1006A0000546206841694069C1F34001C0F38020DC
:1006B0004FF0A0080EE0FFF7E7FE401BB84200D85D
:1006C0000FB984F83D80206841694069C1F3400159
:1006D000C0F3802094F83D20A02A02D009B9002858
:1006E000E9D084F83D9020684169C943890718D44E
:1006F000016841F4007101602068564641698069D3
:100700001923012215492046009500F05FFFC0B96A
:1007100084F83D9084F83C60002005B0BDE8F08F7F
:1007200019E0016841F40071016021686FF4806094
:1007300048611923012209492046009500F046FF2F
:1007400008B10120E9E7761C5E4593D384F83D901B
:1007500084F83CA0F5E70220DFE70000020010006B
:100760000000FFFF2DE9F84F1F4690468A460446D9
:10077000DDF82890FFF788FE054694F83D00202814
:100780007FD11923012240492046009500F01EFF29
:10079000002876D194F83C00012872D0012084F81A
:1007A0003C0020680168C90703D1016841F00101DC
:1007B00001602068016821F400610160212084F853
:1007C0003D00102084F83E0000262664C4F82480F2
:1007D0006785608D20852D48E0622B464A4651464C
:1007E000204600F089FE90B9206841698069009038
:1007F00036E02A464946204600F068FF50B1206C9A
:10080000042804D12068016841F4007101600120CE
:10081000BDE8F88F606A216800780861626A521C3E
:100820006262608D401E6085208D401E80B22085F2
:1008300021684B69DB435B070BD450B1107808612A
:10084000606A401C6062608D401E6085208D401E85
:1008500020852A464946204600F092FE0028CED147
:10086000208D0028C5D154F83D0B016841F400717A
:100870000160202004F81E09E67766770020C7E7AC
:10088000FFE70220C4E70000020010000000FFFFA5
:1008900030B585B0002100910191029103911E4D68
:1008A00001681E4C122203231D48A94216D1A169DA
:1008B00041F00801A161A169039301F008010491CD
:1008C000C021CDE900126946FFF7ECFCE06940F475
:1008D0000010E061E06900F4001019E0114DA94238
:1008E00017D1A16941F00801A161A169039301F049
:1008F000080104914FF44061CDE900126946FFF709
:10090000D1FCE06940F48000E061E06900F480001F
:10091000049005B030BD00000054004000100240BB
:10092000000C0140005800400248816802781144E0
:100930008160704720000020074810B5016841F031
:1009400010010160032000F075F8002000F006F8A7
:1009500000F024F8002010BD0020024070B50D4DBD
:1009600004464FF47A712878B1FBF0F00A4909681F
:10097000B1FBF0F000F095FD48B9102C07D2002231
:100980002146501E00F036F800206C6070BD01203A
:1009900070BD0000200000202C0000200C4808B58D
:1009A000816941F001018161816901F001010091DA
:1009B000C16941F08051C161C069064900F08050B1
:1009C0000090486820F0E06040F00070486008BD8A
:1009D0000010024000000140002809DB00F01F0267
:1009E000012191404009800000F1E020C0F8001191
:1009F00070470000F0B40E4B1B68C3F30223C3F131
:100A00000704042C00D904241D1D072D01D2002346
:100A100000E0DB1E012606FA04F56D1E0D409D4028
:100A20009E40761E164045EA0601F0BC01F0DABA97
:100A30000CED00E0064A00F0070110684FF6FF03D6
:100A4000184040EA01200349084310607047000045
:100A50000CED00E00000FA052DE9F0470D4604001A
:100A600067D0DFF81881D8F8000000F00700A8422E
:100A70000CD2D8F8001021F007012943C8F8001063
:100A8000D8F8000000F00700A84252D120683C4E80
:100A9000810712D5400703D5706840F4E0607060AC
:100AA0002078000703D5706840F46050706070686B
:100AB000A16820F0F000084370602078C00727D0BC
:100AC0006068012810D03168022810D089070029F9
:100AD0002FDA716821F0030101437160FFF7D4FC44
:100AE000074641F288390CE031688903EFE7890154
:100AF000EDE7FFF7C9FCC11B494502D90320BDE85A
:100B0000F0877068616800F00C00B0EB810FF0D1E5
:100B1000D8F80010404601F00701A9420BD901683E
:100B200021F0070129430160006800F00700A84296
:100B300001D00120E3E72078400705D57068E1681F
:100B400020F4E060084370602078000706D57068E4
:100B5000216920F4605040EAC100706000F028F87C
:100B60007168084AC1F30311515CC8400649086026
:100B700006480068FFF7F2FE0020C0E700200240B0
:100B800000100240045100082C0000202400002026
:100B90000448054900684968044AC1F30221515CD0
:100BA000C84070472C00002000100240145100087B
:100BB00012A085B00FC88DE80F0014A0144B006878
:100BC00004905968134801F00C02042A10D0082A36
:100BD0000ED1C1F38342C9031DF802000AD559683A
:100BE00004AAC1F34041515C0A4A5043B0FBF1F002
:100BF00005B0704708494843FAE7000002030405BE
:100C0000060708090A0B0C0D0E0F10100102000058
:100C10000010024000127A0000093D002DE9F84F53
:100C200004006FD02078BE4DC00747D06868C0F37D
:100C30008100012807D06868C0F38100022809D12B
:100C40006868C00306D52868800337D56068002827
:100C5000E7D033E06068B0F5803F0BD010B1B0F55D
:100C6000A02F11D0286820F480302860286820F454
:100C7000802002E0286840F480302860606888B1F5
:100C8000FFF702FC064609E0286840F4802028604F
:100C9000F0E7FFF7F9FB801B642873D8286880030E
:100CA000F7D50BE0FFF7F0FB064604E0FFF7ECFB9F
:100CB000801B6428F1D828688003F7D42078DFF8F7
:100CC000648280074FF0010A4FF0000939D5686847
:100CD00010F00C0F07D06868C0F38100022809D11A
:100CE0006868C00306D42868800714D520690128E5
:100CF00008D110E02069B0B1C8F800A0FFF7C4FB2C
:100D0000064605E007E1FFF7BFFB801B0228C4D8B9
:100D100028688007F7D52868616920F0F80040EA64
:100D2000C10028600DE0C8F80090FFF7ADFB064653
:100D300004E0FFF7A9FB801B022823D8286880075E
:100D4000F7D4207800072CD57748A169D9B1C0F82D
:100D500000A0FFF799FB064604E0FFF795FB801B18
:100D600002280FD8686A8007F7D570484FF4FA5107
:100D70000068B0FBF1F0009000BF0098411E0091A8
:100D8000FAD20EE07CE0C0F80090FFF77DFB06464B
:100D900004E0FFF779FB801B022871D8686A80079E
:100DA000F7D4207840075BD5E8690027C00008D455
:100DB000E86940F08050E861E869012700F0805060
:100DC00000905B480168C90511D40168834641F46D
:100DD00080710160FFF758FB064604E0FFF754FB03
:100DE000801B64284CD8DBF80000C005F6D5E0680D
:100DF00001280AD008B1052813D0286A20F0010084
:100E00002862286A20F0040002E0286A40F001000D
:100E10002862E06841F2883B88B1FFF735FB06465F
:100E200009E0286A40F004002862EEE7FFF72CFB97
:100E3000811B59455BD8286A8007F7D50BE0FFF77F
:100E400023FB064604E0FFF71FFB811B59454ED8E4
:100E5000286A8007F7D41FB1E86920F08050E86164
:100E6000E069A8B36968C1F38101022946D002286C
:100E7000484606D0C8F86000FFF706FB044639E094
:100E800035E04746C8F86000FFF7FEFA064604E082
:100E9000FFF7FAFA801B022829D828688001F7D4C6
:100EA000206AB0F5803F05D16868A16820F4003061
:100EB00008436860D4E908010843696821F47411A3
:100EC00008436860C7F860A0FFF7DEFA044605E053
:100ED00023E0FFF7D9FA001B022808D82868800110
:100EE000F7D51AE0FFF7D0FA001B022802D9032039
:100EF000BDE8F88F28688001F4D40EE00128F7D00F
:100F00006868226A00F48031914204D1616A00F479
:100F10007010884201D00120EAE70020E8E70000D5
:100F20000010024000004242800442422C00002097
:100F30000070004070B5040005D00025A56294F84B
:100F4000510010B106E0012070BD84F850502046D9
:100F500000F02EF8022084F851002068016821F08A
:100F600040010160D4E901010843D4E903121143AF
:100F7000084361690843218B01F400710843E1696A
:100F80000843216A0843A16A084321680860A069F0
:100F9000042101EA1040216848602068C16921F4F9
:100FA0000061C1616565012084F85100002070BDB9
:100FB00030B585B000240094019402940394006835
:100FC0001449884223D11448816941F480518161D8
:100FD000816901F480510491816941F004018161CA
:100FE00080690E4D00F004000490A02000900220C3
:100FF00001900320039069462846FFF753F94020EB
:10100000CDE90004694628460294FFF74BF905B084
:1010100030BD0000003001400010024000080140D7
:101020002DE9F84F0446406800261D469046894643
:101030004FF0040BB0F5827F01D1A06888B194F81D
:101040005000012817D0012084F85000FFF71CFA47
:10105000074694F851004FF0000A01280DD00226EF
:1010600079E084F851B0009313460A46204600F018
:101070002BF9BDE8F88F0220FBE7B9F1000F69D02A
:10108000B8F1000F66D084F851B0C4F854A0C4F889
:101090003890A4F83C80A4F83E80C4F830A0A4F8AE
:1010A00034A0A4F836A0C4F840A0C4F844A0A068B6
:1010B000B0F5004F04D12068016821F4804101603F
:1010C00020680168490603D4016841F040010160CD
:1010D000E068B8B131E020688168C90709D0007BB9
:1010E000A16B0870A06B401CA063E08F401EE087DE
:1010F00008E0FFF7C9F9C01BA84202D3681C01D061
:1011000031E07DB3E08F0028E5D119E020688168E7
:10111000C90709D0C068A16B0880A06B801CA063C0
:10112000E08F401EE08708E0FFF7AEF9C01BA84241
:1011300002D3681C01D016E0A5B1E08F0028E5D1EC
:101140003A462946204600F0FDFC08B120206065A3
:10115000606D00B10126012084F8510084F850A090
:10116000304686E7FFE70326F5E72DE9F84F04460A
:1011700090F8500000261D469046894601280ED062
:101180004FF0010B84F850B0FFF77EF9074694F852
:1011900051004146B246012804D002268EE00220CA
:1011A000BDE8F88FB9F1000F6FD0B8F1000F6CD027
:1011B000032084F85100C4F854A0C4F83090A4F877
:1011C0003480A4F83680C4F838A0A4F83CA0A4F871
:1011D0003EA0C4F844A0C4F840A0A068B0F5004FF9
:1011E00004D12068026842F48042026020680268EC
:1011F000520603D4026842F040020260E068B0F593
:10120000006F606803D028B3012923D03FE008B104
:1012100001291BD1206B21680088C86006E0206886
:101220008168890709D5216B0988C160206B801C02
:101230002063E08E401EE08608E0FFF725F9C01B22
:10124000A84202D3681C01D02FE075B3E08E0028BD
:10125000E5D11FE0206B21680078087306E0206864
:101260008168890709D5216B09780173206B401CBF
:101270002063E08E401EE08609E0FFF705F9C01B01
:10128000A84203D3681C02D00FE016E06DB1E08ED7
:101290000028E4D13A462946204600F081FC08B1F6
:1012A00020206065A06810B105E0032606E02068F4
:1012B000C16880680090606D00B1012684F851B06B
:1012C00084F850A030466BE72DE9F84F044690F8BB
:1012D000500001250A9E1F4692468B464FF000089B
:1012E00001280ED0012084F85000FFF7CDF8814688
:1012F00094F85100616801280CD0B1F5827F07D1C4
:1013000002E00220BDE8F88FA16809B9042801D0E5
:101310000220B6E0BBF1000F27D0BAF1000F24D0B5
:101320001FB394F85100042802D0052084F851001E
:1013300000206065C4F838A0E787A787C4F830B0FC
:10134000E786A7862064606420680168490603D4A4
:10135000016841F040010160E068B0F5006F60682D
:1013600005D0E8B3012F43D079E0012089E008B12E
:10137000012F34D1206B21680088C860206B801C4D
:101380002063E08E401EE08629E02068816889079E
:101390000DD5E18E59B1012D09D1216B0988C160AC
:1013A000206B801C2063E08E401EE08600252068B4
:1013B0008168C9070BD0E18F49B1C068A16B088073
:1013C000A06B801CA063E08F401EE0870125FFF723
:1013D0005BF8A0EB0900B04201D3701C50D100E0D3
:1013E00006E0E08E0028D0D1E08F0028CDD13CE08F
:1013F000206B216800780873206B401C2063E08E0E
:10140000401EE0862BE02068816889070DD5E18EBB
:1014100059B1012D09D1216B09780173206B401C52
:101420002063E08E401EE086002520688168C907A1
:101430000BD0E18F49B1C068A16B0870A06B401C54
:10144000A063E08F401EE0870125FFF71DF8A0EBA9
:101450000900B04202D3701C01D011E086B1E08EC9
:101460000028D0D1E08F0028CDD14A463146204611
:1014700000F096FB38B120204FF00108606508E0CD
:101480000320804605E0A06818B92068C16880681C
:101490000090012084F85100002084F8500040465C
:1014A00030E710B5401EB0F1807F01D3012010BDA0
:1014B0004FF0E02460610F21601700F093FD0020E1
:1014C000A06107202061002010BD01684A69D24355
:1014D00052050FD46FF480624A61002140F8301F3A
:1014E000202242738173026942F004020261017397
:1014F0000120704700207047F8B50446C06A1E46B8
:101500000D461746082807D0012805D010F5803F62
:1015100002D0206B122804D12068016841F4807148
:101520000160134600224FF001112046009600F0A2
:101530004DF808BB2069B0F5804F0ED00620216819
:1015400000EAD51040F0F000086133463A460B49F6
:10155000204600F06FF878B902E005F0FE0000E0E8
:10156000E8B221680861054933463A46891F20469A
:1015700000F060F8002800D00120F8BD080001004C
:1015800070B516460D4604460DE02046FFF79DFF58
:1015900008B1012070BD681C05D0FEF775FF801BE7
:1015A000A84207D835B120684069C0434007ECD451
:1015B000002070BD002044F8300F20216173A0731B
:1015C000216941F0200121612073E2E72DE9F04714
:1015D0001D4690460E460446C1F30747DDF82090AD
:1015E00008E0681C06D0FEF74FFFA0EB0900A842F8
:1015F0000FD875B12068012F18D0806926EA000045
:101600000004000C14D000204045EAD00020BDE8C2
:10161000F087002044F8300F20216173A073216906
:1016200041F02001216120730120F0E74069E5E7E6
:101630000120E9E72DE9F047984615460E46044695
:101640004FF000094FF0200AC1F3074723E020685C
:101650004069C043400515D42068016841F4007119
:10166000016021686FF480604861C4F8309084F8AC
:101670003DA084F83E90216C41F00401216484F87F
:101680003C901EE0681C06D0FEF7FEFEA0EB0800B2
:10169000A8420AD84DB12068012F15D0806926EAEA
:1016A00000000004000C0DD0D1E744F8309F84F80E
:1016B0000DA084F80E90216941F02001216184F889
:1016C0000C900120BDE8F0874069E8E770B5164648
:1016D0000D4604460DE02046FFF7F7FE08B1012055
:1016E00070BD681C05D0FEF7CFFE801BA84207D84E
:1016F00035B120684069C0430006ECD4002070BDBD
:10170000002044F8300F20216173A073216941F05B
:10171000200121612073E2E72DE9F04186B0002429
:101720002E480094019402940394816941F02001B1
:101730008161816901F020010491816941F0040116
:101740008161816901F004010491816941F008011E
:1017500081618069DFF8888000F008000490002231
:1017600002214046FEF78BFE1E4F00220121384623
:10177000FEF785FE012204213846FEF780FE022591
:101780000126CDE9005669464046CDE90245FEF7FF
:1017900089FD0520CDE9000669463846CDE90245B8
:1017A000FEF780FDE801CDE9000469464046029459
:1017B000FEF778FDA80300900B48CDE901066946C5
:1017C0004046FEF76FFD002211462820FFF712F970
:1017D0002820FFF701F906B0BDE8F08100100240B3
:1017E00000080140000C0140000021100D4810B518
:1017F0000B4901600C49416000214FF48042816037
:10180000C0E9031241618161C1610162FEF742FEDC
:10181000002803D0BDE81040FEF7FDBC10BD00005D
:101820000054004058000020A08601000D4810B56B
:101830000B4901600C49416000214FF480428160F6
:10184000C0E9031241618161C1610162FEF722FEBC
:10185000002803D0BDE81040FEF7DDBC10BD00003D
:1018600000580040AC000020801A0600104810B557
:101870000E4901604FF48271416000218160C160B6
:101880004FF400720161C0E905122022C0E907216E
:10189000416281620A21C162FFF74CFB002803D03C
:1018A000BDE81040FEF7B7BC10BD0000003001409D
:1018B0000001002031B582B00020114D8DF80400E8
:1018C000024604212846FEF7DAFD4FF47A7401231C
:1018D00001AA02A90B480094FFF7F6FCFF218DF83E
:1018E0000810012301AA02A906480094FFF7ECFCA6
:1018F000012204212846FEF7C2FD9DF804003EBDEA
:10190000000C01400001002073B5104C9DF8000050
:10191000002240F020008DF8000004212046FEF750
:10192000AEFD4FF47A752B46012269460848FFF751
:101930001CFC2B46012201A90548FFF716FC0122D9
:1019400004212046FEF79BFD7CBD0000000C0140F9
:101950000001002038B50020FFF7ACFF044600214D
:10196000084600F0A3F9234600222EA13248009435
:1019700000F024FB012231492F4800F09BFA05209A
:10198000FFF798FF04460A21002000F08FF9234654
:10199000052224A12848009400F010FB01222749C9
:1019A000254800F087FA1120FFF784FF0446142130
:1019B000002000F07BF9234611221AA11E48009452
:1019C00000F0FCFA01221D491B4800F073FA1220B6
:1019D000FFF770FF04461E21002000F067F9234640
:1019E000122210A11448009400F0E8FA01221349D1
:1019F000114800F05FFA0420FFF75CFF044628213D
:101A0000002000F053F92346042206A10A4800945E
:101A100000F0D4FABDE8384001220849064800F039
:101A200049BA0000523A25303258203D20307825FE
:101A30003032583D25337500380000200800002062
:101A400038B52B4D0024224601212846FEF717FD0C
:101A50000B210020FFF758FF264827490068B0FBFC
:101A6000F1F041F2883148430090411E009101D3CA
:101A70000846FAE702210420FFF746FF0420FFF79B
:101A800019FF022800D0641C32210520FFF73CFF1B
:101A90000520FFF70FFF322801D044F002040C218B
:101AA0001120FFF731FF1120FFF704FF0C2801D0B0
:101AB00044F004040C211220FFF726FF1220FFF748
:101AC000F9FE0C2801D044F00804E220FFF7F2FEF2
:101AD00070210720FFF718FF012211462846FEF764
:101AE000CEFC002202210548FEF7C9FC204638BD85
:101AF000000C01402C0000204054890000080140E7
:101B0000F7B50E4C16460F46002204212046FEF77C
:101B1000B6FC4FF47A752B46012269460848FFF758
:101B200024FB2B46324639460548FFF779FA012255
:101B300004212046FEF7A3FCFEBD0000000C01407E
:101B400000010020F8B5044640684FF482739842C3
:101B500017D1A0684FF48065B0F5004F01D0A842BE
:101B60000FD12068066826F040060660606898423B
:101B700007D1A068A84204D100920B46002201219F
:101B800003E000920B4600228021204600F018F866
:101B9000002804D0606D40F0200060650320F8BD8F
:101BA00038B50B46009204460022802100F008F868
:101BB000002804D0606D40F020006065032038BD2F
:101BC0002DE9F0411D4617460E460446DDF8188003
:101BD00008E0681C06D0FEF757FCA0EB0800A842FE
:101BE0000BD255B12068806836EA000030D0002062
:101BF000B842EED10020BDE8F0812068416821F0B4
:101C0000E00141606068B0F5827F0BD1A068B0F55B
:101C1000004F02D0B0F5806F04D12068016821F038
:101C200040010160A06AB0F5005F09D12068016839
:101C300021F4005101602068016841F40051016005
:101C4000012084F85100002084F850000320D2E7DE
:101C50000120CDE730B5802813D2402911D20B4B9B
:101C60001B790BB172B10022012301F00704A340DC
:101C7000074DC90800EBC110012A295C04D0994323
:101C8000295430BD0122EFE71943F9E70200002093
:101C90005801002028B1FF224FF480610248FEF76E
:101CA00051BA0022F8E7000058010020014A1080D4
:101CB000518070470200002010B500F0DFFD44F6AF
:101CC0002063012278215148FEF79EFC08B10020D4
:101CD00010BD40F6C410401EFDD1AE220021782078
:101CE00000F0D2FD20220021782000F0CDFD10224E
:101CF0000021782000F0C8FDB0220021782000F0FB
:101D0000C3FDC8220021782000F0BEFD002211464C
:101D1000782000F0B9FD10220021782000F0B4FDF9
:101D200040220021782000F0AFFD812200217820A0
:101D300000F0AAFDFF220021782000F0A5FDA122DD
:101D40000021782000F0A0FDA6220021782000F0DC
:101D50009BFDA8220021782000F096FD3F22002163
:101D6000782000F091FDA4220021782000F08CFD65
:101D7000D3220021782000F087FD00221146782030
:101D800000F082FDD5220021782000F07DFDF022B8
:101D90000021782000F078FDD9220021782000F081
:101DA00073FD22220021782000F06EFDDA2200214E
:101DB000782000F069FD12220021782000F064FDF7
:101DC000DB220021782000F05FFD20220021782016
:101DD00000F05AFD8D220021782000F055FD1422DC
:101DE0000021782000F050FDAF220021782000F083
:101DF0004BFD0020FFF74EFF00F070F80448002173
:101E00000180418001214171084610BDAC000020D5
:101E1000020000202DE9F047824625480E469146F3
:101E2000018832781144802905D280464088717833
:101E30000844402802D30020BDE8F087002529E0AF
:101E4000AAF1200101FB00507268002432F81070E2
:101E50001CE007FA04F0000409D5B8F80210B8F83D
:101E600000002944204489B280B24A460BE0B9F10F
:101E7000000F1AD00022B8F80210B8F80000294468
:101E8000204489B280B2FFF7E5FE641C3078A0429E
:101E9000DFD86D1C7078A842D2D8B8F8001032781C
:101EA00050461144A8F80010C6E70122E3E70000FD
:101EB0000200002070B515460E46044609E02A4689
:101EC0003146FFF7A7FF2178884201D0C8B270BD24
:101ED000641C20780028F2D1C0B270BD70B50F4DDF
:101EE000002404F1B000C2B20021782000F0CCFC44
:101EF00000221146782000F0C7FC10220021782033
:101F000000F0C2FC05EBC41280234021782000F0D1
:101F1000CBFC641CE4B2082CE3D370BD5801002054
:101F2000FEF702BD30B58FB028216846FEF711F9E3
:101F300014210AA8FEF70DF901210804CDE90010CB
:101F40000024029402250491CDE907504FF4E010DB
:101F500009906846FEF762FE0F20CDE90A05680287
:101F6000CDE90C4002210AA80E94FEF775FD0FB0D2
:101F700030BD00000D48016841F001010160416879
:101F80000B4A1140416001680A4A11400160016832
:101F900021F480210160416821F4FE0141604FF489
:101FA0001F0181600449C0030860704700100240AF
:101FB0000000FFF8FFFFF6FE08ED00E00FB4084B4D
:101FC00010B504A902AA039800F02CF8044602A94F
:101FD000002000F058FA204610BC5DF814FB000009
:101FE000872400080907090E002804DB00F1E0201F
:101FF00080F80014704700F00F0000F1E02080F836
:10200000141D704702E008C8121F08C1002AFAD147
:1020100070477047002001E001C1121F002AFBD168
:10202000704700002DE9FF4F8DB00F460546002692
:1020300006E025280BD0DDE90F1290476D1C761CB9
:1020400028780028F5D111B03046BDE8F08F002483
:10205000A246A1460122EC4900E0044315F8013FE5
:10206000203B02FA03F00842F7D128782A2810D042
:102070006FF02F022878A0F13001092914D80AEB5B
:102080008A0102EB410144F0020400EB010A6D1CDD
:10209000F0E701CF5FEA000A03D544F40054CAF127
:1020A000000A44F002046D1C28782E2817D115F878
:1020B000010F44F004042A280ED06FF02F02287874
:1020C000A0F1300109290AD809EB890102EB41018D
:1020D00000EB01096D1CF2E757F8049B6D1C287892
:1020E0006C280FD006DC4C2817D068280DD06A2841
:1020F00014D104E0742810D07A280FD10DE044F4F4
:1021000000140AE044F4801401E044F440146978B7
:10211000814202D104F580146D1C6D1C2A786E2A50
:102120001FD00CDC632A31D004DC002A8BD0582A63
:1021300011D1A3E0642A68D0692A0CD165E0732A22
:102140002ED004DC6F2A73D0702A04D19BE0752A4C
:102150006FD0782A6ED01046DDE90F129047761CBA
:1021600050E1C4F30250022806D0032809D0042805
:1021700001CF09D0066045E101CFF117C0E9006148
:1021800040E101CF06803DE106703BE117F8040B0A
:102190008DF8000000208DF80100EB46012003E0DF
:1021A00057F804BB4FF0FF3061074FF0000102D435
:1021B0000DE008F10101884649450FDA8045F8DB5A
:1021C0001BF808100029F4D108E008F10101884645
:1021D0008142FADB1BF808100029F6D1DDE90F2354
:1021E000AAEB08008146214600F036F9304400EBA6
:1021F000080604E0DDE90F121BF8010B9047B8F167
:102200000108F7D221464846F7E00A21C4F30253F9
:102210004FF0000B0891022B04D001CFC117032B04
:1022200009D00AE0FF1D27F00707F7E8020108E0E0
:1022300032E01FE020E000B2C117042B01D140B210
:10224000C117031E71F1000307DA4FF0000CD0EB49
:102250000C006CEB01012D2302E0230504D52B2398
:102260008DF82430012303E0E30701D02023F7E7B2
:10227000984658E00A2110E010210EE010204FF09F
:10228000000B08900CE010214FF0000B44F0040408
:102290004FF00809089103E008214FF0000B089166
:1022A000C4F30253022B04D001CF0021032B06D02C
:1022B00006E0FF1D27F00707F7E8020103E080B200
:1022C000042B00D1C0B24FF0000823072BD5702A91
:1022D00007D0DDF820C08CF0100C5CEA0B0C05D0A8
:1022E0000EE040238DF82430012308E050EA01037A
:1022F00006D030238DF824308DF82520022398460F
:10230000DDF820C08CF0080C5CEA0B0C0BD150EA15
:10231000010301D1630706D530238DF824304FF037
:102320000108A9F10109582A04D038A20B9208AA81
:102330000A920BE03AA2F9E75B46089AFDF714FF10
:102340000B9B9B5C0A9A521E0A92137050EA010280
:10235000F2D10A98ADEB000000F1200B600702D526
:1023600024F4803401E04FF00109D94502DDA9EBE6
:102370000B0000E0002000EB0B0141440890AAEBA9
:10238000010AE00306D4DDE90F232146504600F0A0
:1023900063F806444FF0000908E009A911F80900A4
:1023A000DDE90F12904709F10109761CC145F4DB04
:1023B000E0030CD5DDE90F232146504600F04CF830
:1023C000064404E0DDE90F1230209047761C08999E
:1023D000481E08900029F5DC08E00A980A99007860
:1023E000491C0A91DDE90F129047761CBBF10001F0
:1023F000ABF1010BF1DC21465046DDE90F2300F083
:1024000019F806446D1C1BE60928010030313233EF
:102410003435363738396162636465660000000020
:10242000303132333435363738394142434445460A
:10243000000000002DE9F041044600251E46174625
:10244000880404D405E039462020B0476D1C641E82
:10245000F9D52846BDE8F0812DE9F0410446002574
:102460001E469046C80301D5302700E02027880487
:1024700004D505E041463846B0476D1C641EF9D5C9
:102480002846BDE8F0810A68531C0B601070704745
:1024900010B5002821D0114B0022001F196803E05D
:1024A000814203D80A4649680029F9D152B113681C
:1024B000841A9C4204D1006818441060104602E05F
:1024C000506000E0186039B102680B1A934203D1E2
:1024D0000B681A4402604968416010BD300000205A
:1024E00070B5FFF7E9FB40B200285ED002210A2058
:1024F000FFF7DCFB01222D492DA0FFF7DBFC0F21AC
:102500000846FFF7D3FB01222E492FA0FFF7D2FC8C
:1025100023211920FFF7CAFB01222E492EA0FFF725
:10252000C9FCFFF7DBFC4FF47A752846FDF774FE13
:102530000020FFF7AFFB0F210520FFF7B7FB0122BB
:10254000204927A0FFF7B6FCFFF7C8FCFFF778FA91
:1025500044B24FF00000B4B1FFF79CFBFFF7FAF96B
:10256000224622A12548FFF729FD32210A20FFF744
:102570009DFB01220D492148FFF79CFCFFF7AEFCB3
:1025800042F210700DE0FFF785FB0F210846FFF7C0
:102590008DFB01220B491AA0FFF78CFCFFF79EFC74
:1025A0002846BDE87040FDF737BE70BD080000202A
:1025B0007777772E6772617669746F6E2E636F6DB1
:1025C0002E756100100000204B686C6F706F6E6993
:1025D0006E000000180000204E5246323400000009
:1025E0006E5246323420696E697400006572726FF3
:1025F000723A203078253032580000003800002030
:102600006E52463234204F6B2100000008B5FEF7B1
:1026100093F9FFF787FCFFF77FF8FFF707F9FFF75C
:10262000E5F8FFF723F9FFF75BFF0020FFF732FB28
:10263000DFF868815A4F4FF47A7902214046FDF75E
:1026400017FF3878401E40B2387000284FF0000065
:102650007CDDFFF71FFB534D0A242888B0FBF4F103
:10266000B0FBF4F204FB11034FA1A5F11400FFF736
:10267000A5FC00210846FFF719FB01224D49A5F1F1
:102680001400FFF717FC6888B0FBF4F1B0FBF4F21C
:1026900004FB110348A1A5F11400FFF78FFC0021F2
:1026A0004620FFF703FB01224249A5F11400FFF782
:1026B00001FCA888B0FBF4F1B0FBF4F204FB1103B9
:1026C00040A1A5F11400FFF779FC0F210020FFF7CE
:1026D000EDFA01223749A5F11400FFF7EBFBE8887A
:1026E000B0FBF4F1B0FBF4F204FB1106334638A161
:1026F000A5F11400FFF762FC0F214620FFF7D6FA80
:1027000001222C49A5F11400FFF7D4FBA87A009010
:102710006B7A2A7A31A1A5F11400FFF74FFC1E2134
:102720000020FFF7C3FA01222249A5F11400FFF7A8
:10273000C1FB97F9013097F900202DA1A5F11400F4
:10274000FFF73CFC3221002019E0FFE7FFF7A2FA77
:102750000020FFF7AFF80B2803D00B210020FFF774
:10276000D3F8FFF7F7F800203870761C0D48F6B262
:10277000324623A11438FFF721FC32210A20FFF74B
:1027800095FA084801220B491438FFF793FBFFF72D
:10279000A5FB4846FDF740FD4FE70000000801405B
:1027A000000000204C00002054303D2532692C25CB
:1027B000750000000800002054313D2532692C25A9
:1027C0007500000054323D2532692C25750000004B
:1027D00054333D2532692C257500000044533D25B6
:1027E00069202054493D25692020454E3D2569003A
:1027F000776169743D253269206972713D256900F0
:102800006E6F207369676E616C3A25336900000052
:10281000F0B50B30154D20F007010024144A0FE0ED
:1028200003688B420BD38B4205D95E1A4318476865
:10283000C3E9006700E04368136002C004E0021DC2
:1028400010680028ECD12046002802D1286808B181
:102850000020F0BD064A07481060074A121A22F00D
:102860000702C0E9002401202860D7E734000020D7
:10287000300000205C050020580900200148401E5F
:10288000FDD1704790D003001CB502238DF80410D1
:102890000A2100918DF80520014601AA0148FDF7A3
:1028A00061FF1CBDAC0000202DE9F84380461D46A9
:1028B00016460F46581CFFF7ABFF04460770012071
:1028C00005E0311811F8011C2154401CC0B2A84287
:1028D000F7D90A2000902B46224641460348FDF7CF
:1028E00041FF2046BDE8F843FFF7D2BDAC00002011
:1028F00000000000000000000000000000000000D8
:102900000000000000100010001000100010001067
:10291000000000100000000000280028002800002F
:10292000000000000000000000000000002400245F
:10293000007C00240048007C0048004800000000A3
:10294000003800540050003800140054005400387F
:1029500000100000002000540058003000280054EF
:1029600000140008000000000010002800280010DB
:10297000003400480048003400000000001000103F
:102980000010000000000000000000000000000037
:10299000000800100020002000200020002000205F
:1029A00000100008002000100008000800080008BF
:1029B0000008000800100020001000380010002857
:1029C0000000000000000000000000000000000007
:1029D00000100010007C001000100000000000003B
:1029E00000000000000000000000000000000010D7
:1029F000001000100000000000000000000000387F
:102A000000000000000000000000000000000000C6
:102A10000000000000000010000000000008000896
:102A20000010001000100010002000200000000026
:102A3000003800440044005400440044004400387E
:102A400000000000001000300050001000100010C6
:102A50000010001000000000003800440044000492
:102A6000000800100020007C000000000038004436
:102A700000040018000400040044003800000000B6
:102A800000080018002800280048007C0008000802
:102A900000000000007C00400040007800040004BA
:102AA0000044003800000000003800440040007876
:102AB000004400440044003800000000007C000492
:102AC000000800100010002000200020000000007E
:102AD00000380044004400380044004400440038FA
:102AE000000000000038004400440044003C0004A2
:102AF000004400380000000000000000001000004A
:102B000000000000000000100000000000000000B5
:102B10000000001000000000000000100010001075
:102B200000000000000C003000400030000C0000ED
:102B300000000000000000000000007C0000007C9D
:102B4000000000000000000000000000006000180D
:102B5000000400180060000000000000003800447D
:102B60000004000800100010000000100000000029
:102B700000380044004C0054005C00400040003825
:102B80000000000000100028002800280028007C19
:102B90000044004400000000007800440044007835
:102BA0000044004400440078000000000038004465
:102BB0000040004000400040004400380000000099
:102BC0000070004800440044004400440048007085
:102BD00000000000007C00400040007C00400040FD
:102BE0000040007C00000000007C004000400078B5
:102BF0000040004000400040000000000038004459
:102C000000400040005C0044004400380000000028
:102C1000004400440044007C00440044004400445C
:102C2000000000000038001000100010001000101C
:102C3000001000380000000000040004000400043C
:102C40000004000400440038000000000044004874
:102C500000500060005000480048004400000000A0
:102C60000040004000400040004000400040007C28
:102C7000000000000044006C006C0054004400445C
:102C8000004400440000000000440064006400545C
:102C90000054004C004C0044000000000038004488
:102CA0000044004400440044004400380000000098
:102CB0000078004400440044007800400040004098
:102CC0000000000000380044004400440044004478
:102CD0000054003800040000007800440044004420
:102CE000007800480048004400000000003800441C
:102CF00000400030000800040044003800000000DC
:102D0000007C0010001000100010001000100010D7
:102D1000000000000044004400440044004400441B
:102D20000044003800000000004400440044002833
:102D3000002800280010001000000000004400449B
:102D4000005400540054006C0028002800000000CB
:102D5000004400280028001000100028002800442B
:102D6000000000000044004400280028001000106B
:102D70000010001000000000007C0004000800109B
:102D8000001000200040007C00000000001800102F
:102D900000100010001000100010001000100018AB
:102DA0000020002000100010001000100008000893
:102DB0000000000000300010001000100010001093
:102DC00000100010001000300010002800280044FF
:102DD00000000000000000000000000000000000F3
:102DE000000000000000000000000000000000FEE5
:102DF00000200010000000000000000000000000A3
:102E0000000000000000000000380044003C0044C6
:102E1000004C0034000000000040004000580064F6
:102E2000004400440064005800000000000000005E
:102E3000003800440040004000440038000000001A
:102E4000000400040034004C00440044004C0034F2
:102E5000000000000000000000380044007C00403A
:102E60000044003800000000000C0010007C00103E
:102E70000010001000100010000000000000000012
:102E80000034004C00440044004C0034000400783E
:102E900000400040005800640044004400440044E6
:102EA0000000000000100000007000100010001072
:102EB0000010001000000000001000000070001062
:102EC0000010001000100010001000E00040004052
:102ED000004800500060005000480044000000001E
:102EE0000070001000100010001000100010001002
:102EF000000000000000000000780054005400545E
:102F0000005400540000000000000000005800645D
:102F100000440044004400440000000000000000A1
:102F20000038004400440044004400380000000021
:102F30000000000000580064004400440064005891
:102F400000400040000000000034004C00440044F9
:102F5000004C00340004000400000000005800642D
:102F60000040004000400040000000000000000061
:102F70000038004400300008004400380000000021
:102F800000200020007800200020002000200018F1
:102F90000000000000000000004400440044004421
:102FA000004C003400000000000000000044004419
:102FB0000028002800280010000000000000000089
:102FC000005400540054006C002800280000000049
:102FD00000000000004400280010001000280044F9
:102FE0000000000000000000004400440028002809
:102FF000001000100010006000000000007C0008BD
:10300000001000200040007C0000000000180010AC
:103010000010001000200020001000100010001808
:103020000010001000100010001000100010001020
:103030000010001000300010001000100008000800
:1030400000100010001000300000000000000074AC
:10305000004C000000000000000000000000000024
:103060000000000000000000000000000000000060
:103070000000000000000000000000000000000050
:103080000000000C000C000C000C000C000C000CEC
:10309000000C000C000C000C0000000C000C0000E8
:1030A000000000000000001B001B001B001B001B99
:1030B0000000000000000000000000000000000010
:1030C0000000000000000000000080198019801935
:1030D0008019C07FC07F80190033C07FC07F00335C
:1030E0000033003300330000000000000000001E29
:1030F000003F807580650074003C001E000780055D
:10310000806580658075003F001E0004000400009B
:103110000000007000D840D8C0D880D900730006E5
:10312000000C801BC036C066C046C006800300008D
:10313000000000000000001E003F00330033003399
:10314000001E000CC03CC066806380618063C03E8E
:10315000801C0000000000000000000C000C000CAF
:10316000000C000C00000000000000000000000047
:1031700000000000000000000000000080000001CE
:103180000003000600060004000C000C000C000CFC
:10319000000C000C00040006000600030001800083
:1031A000002000100018000C000C000400060006AF
:1031B00000060006000600060004000C000C0018C3
:1031C000001000200000000C002D003F001E003306
:1031D00000000000000000000000000000000000EF
:1031E0000000000000000000000000000000000CD3
:1031F000000C000C000CC0FFC0FF000C000C000C09
:10320000000C0000000000000000000000000000B2
:1032100000000000000000000000000000000000AE
:10322000000000000000000C000C00040004000876
:10323000000000000000000000000000000000008E
:103240000000001E001E0000000000000000000042
:10325000000000000000000000000000000000006E
:103260000000000000000000000000000000000C52
:10327000000C000000000000000000030003000339
:103280000006000600060006000C000C000C000CF6
:103290000018001800180000000000000000001EC8
:1032A000003F0033806180618061806D806D80614E
:1032B000806180610033003F001E000000000000BC
:1032C00000000006000E001E003600260006000664
:1032D00000060006000600060006000600060000C4
:1032E000000000000000001E003F807380618061CC
:1032F000800100030006000C001800300060807F91
:10330000807F0000000000000000001C003E006301
:1033100000630003000E000E000380018001806145
:103320008073003F001E0000000000000000000647
:10333000000E000E001E001E00160036003600664D
:10334000807F807F0006000600060000000000006D
:103350000000007F007F006000600060006E007F62
:1033600080638001800180618073003F001E000047
:10337000000000000000001E003F803380610060FC
:10338000006E007F80738061806180618033003FC8
:10339000001E0000000000000000807F807F800190
:1033A0000003000300060006000C000C000C0008DF
:1033B0000018001800180000000000000000001EA7
:1033C000003F8063806180610021001E003F8061BA
:1033D000806180618061003F001E000000000000ED
:1033E0000000001E003F0073806180618061807377
:1033F000803F801D800180610073003F001E00003F
:103400000000000000000000000000000000000CB0
:10341000000C000000000000000000000000000C94
:10342000000C000000000000000000000000000090
:1034300000000000000C000C000000000000000074
:103440000000000C000C0004000400080000000054
:103450000000000080008003000E0038006000388B
:10346000000E80038000000000000000000000004B
:1034700000000000000000000000807F807F00004E
:103480000000807F807F000000000000000000003E
:10349000000000000000000000000000004000707C
:1034A000001C000780010007001C007000400000A5
:1034B00000000000000000000000001F803FC071FD
:1034C000C060C000C00180030007000E000C000CAB
:1034D0000000000C000C0000000000000000001EB6
:1034E000003F803180718063806F806D806D806F60
:1034F000806700600032003E001C000000000000F9
:103500000000000E000E001B001B001B001B803182
:103510008031803F803F8031C060C060C06000006B
:10352000000000000000007C007E00630063006378
:103530000063007E007E0063806180618063007FA5
:10354000007E0000000000000000001E003F8031EF
:103550008061006000600060006000600060806169
:103560008031003F001E0000000000000000007CD1
:10357000007F006380638061806180618061806121
:10358000806100630063007E007C0000000000009A
:103590000000807F807F0060006000600060007F2E
:1035A000007F0060006000600060807F807F00001E
:1035B000000000000000807F807F006000600060ED
:1035C0000060007F007F00600060006000600060BD
:1035D00000600000000000000000001E003F80317D
:1035E0008061006000600060806380638061806152
:1035F0008031803F001E000000000000000080615C
:1036000080618061806180618061807F807F806176
:103610008061806180618061806100000000000045
:103620000000003F003F000C000C000C000C000CE0
:10363000000C000C000C000C000C003F003F0000D0
:1036400000000000000080018001800180018001F5
:103650008001800180018001806180618073003F72
:10366000001E0000000000000000C06080610063D8
:1036700000660066006C0078007C006600660063EF
:1036800080618061C06000000000000000000060F8
:10369000006000600060006000600060006000602A
:1036A000006000600060807F807F000000000000FC
:1036B0000000C071C071C07BC07AC06AC06AC06EB1
:1036C000C064C060C060C060C060C060C060000016
:1036D000000000000000807180718079807980791D
:1036E000806D806D806D8065806780678067806396
:1036F00080630000000000000000001E003F003357
:1037000080618061806180618061806180618061B1
:103710000033003F001E0000000000000000007E9B
:10372000007F80638061806180618063007F007EB4
:1037300000600060006000600060000000000000A9
:103740000000001E003F0033806180618061806165
:1037500080618061806580670033803F401E00008B
:10376000000000000000007E007F806380618061B7
:103770008063007F007E006600630063806180617B
:10378000C0600000000000000000000E001F80313B
:10379000803100300038001E0007800380618061A6
:1037A0008031003F001E0000000000000000C0FF4C
:1037B000C0FF000C000C000C000C000C000C000CF6
:1037C000000C000C000C000C000C000000000000BD
:1037D00000008061806180618061806180618061C2
:1037E00080618061806180618073003F001E000005
:1037F000000000000000C060C060C0608031803107
:103800008031001B001B001B001B000E000E000E71
:1038100000040000000000000000C0C0C0C0C0C024
:10382000C0C0C0C0C0CC804C804C805E80528052F2
:103830008073806180610000000000000000C0C053
:10384000806080610033003B001E000C000C001EF5
:10385000001F003B80718061C0C0000000000000BC
:103860000000C0C08061806100330033001E001E74
:10387000000C000C000C000C000C000C000C0000F4
:10388000000000000000803F803F80010003000333
:103890000006000C000C0018001800300060807F4B
:1038A000807F000000000000000F000F000C000CE3
:1038B000000C000C000C000C000C000C000C000CA8
:1038C000000C000C000C000C000F000F0000001892
:1038D00000180018000C000C000C000C000600067C
:1038E00000060006000300030003000000000000C3
:1038F000001E001E00060006000600060006000668
:103900000006000600060006000600060006000687
:10391000001E001E0000000C000C001E00120033F0
:1039200000338061806100000000000000000000A2
:103930000000000000000000000000000000000087
:103940000000000000000000000000000000000077
:103950000000000000000000E0FF00000000003850
:103960000018000C00000000000000000000000033
:103970000000000000000000000000000000000047
:1039800000000000000000000000001F803F806178
:103990008001801F803F80618063807FC03800008D
:1039A0000000000000000060006000600060006E29
:1039B000007F807380618061806180618073007F9F
:1039C000006E000000000000000000000000000089
:1039D0000000001E003F8073806100600060806115
:1039E0008073003F001E0000000000000000800106
:1039F000800180018001801D803F80738061806133
:103A0000806180618073803F801D000000000000A5
:103A100000000000000000000000001E003F0073D6
:103A20008061807F807F00608071003F001E000009
:103A3000000000000000C007C00F000C000C807FD9
:103A4000807F000C000C000C000C000C000C000C23
:103A5000000C00000000000000000000000000005A
:103A6000801D803F80738061806180618061807390
:103A7000803F801D80018063007F003E0000006069
:103A8000006000600060006F807F807180618061F5
:103A900080618061806180618061000000000000C1
:103AA00000000006000600000000003E003E000688
:103AB00000060006000600060006000600060000DC
:103AC000000000000006000600000000003E003E6E
:103AD00000060006000600060006000600060006B6
:103AE00000060046007E003C0000006000600060B0
:103AF0000060806100630066006C007C00760063FB
:103B000000638061C0600000000000000000003E13
:103B1000003E00060006000600060006000600063D
:103B20000006000600060006000600000000000077
:103B30000000000000000000000080DDC0FFC0CEDB
:103B4000C0CCC0CCC0CCC0CCC0CCC0CCC0CC0000A1
:103B50000000000000000000000000000000006FF6
:103B6000807F80718061806180618061806180611F
:103B70008061000000000000000000000000000064
:103B80000000001E003F8073806180618061806161
:103B90008073003F001E00000000000000000000D5
:103BA00000000000006E007F807380618061806192
:103BB00080618073007F006E0060006000600060C4
:103BC0000000000000000000801D803F80738061C5
:103BD0008061806180618073803F801D80018001F1
:103BE000800180010000000000000000000000676C
:103BF000803F0039003000300030003000300030AD
:103C00000030000000000000000000000000000084
:103C10000000001E803F80610060007F803F8001C7
:103C20008061007F001E0000000000000000000016
:103C3000000800180018007F007F00180018001806
:103C4000001800180018801F800F000000000000FE
:103C500000000000000000000000806180618061C1
:103C600080618061806180618063807F803D000031
:103C70000000000000000000000000000000C06024
:103C8000803180318031001B001B001B000E000EB4
:103C9000000600000000000000000000000000001E
:103CA000000080DD80DD80DD005500550055007787
:103CB0000077002200220000000000000000000049
:103CC000000000000000806100330033001E000C83
:103CD000000C001E00330033806100000000000073
:103CE000000000000000000080618061803100332E
:103CF0000033001B001B001B000E000E000E001CFA
:103D0000007C007000000000000000000000C07F88
:103D1000C07F800100030006000C00180030C07F47
:103D2000C07F00000000000080038007000600063E
:103D3000000600060006000E001C001C000E000617
:103D40000006000600060006800780030006000645
:103D50000006000600060006000600060006000633
:103D60000006000600060006000600060006000623
:103D70000038003C000C000C000C000C000C000E85
:103D800000070007000E000C000C000C000C000CDB
:103D9000003C0038000000000000000000000000AF
:103DA00000008038807F0047000000000000000015
:103DB0000000000000000000000000000000000003
:103DC00000000000000000000000000000000000F3
:103DD00000000000000000000000000000000000E3
:103DE000000000000000000000000000E003E0030D
:103DF000E003E003E003E003E003E003C003C003EB
:103E0000C001C001C001C001C001000000000000ED
:103E1000E003E003E00300000000000000000000F9
:103E20003C1E3C1E3C1E3C1E3C1E3C1E3C1E00001C
:103E30000000000000000000000000000000000082
:103E40000000000000000000000000000000000072
:103E500000000000CE01CE03DE039E039C039C07FE
:103E6000FF3FFF7F3807380F780F780F780EFFFF7E
:103E7000FFFFF01EF01CE01CE03CE03DE0390000DC
:103E80000000000000000000FC03FE0FEE1FE01E1B
:103E9000E01EE01EE01EE01FE00FE007F003FC0163
:103EA000FE01FE01FE01FE01FE01FE01FE3DFC3FA2
:103EB000F00FE001E001000000000000033E07F702
:103EC0008FE78EE79EE3BCE3B8E7F8E7F0F7E03F63
:103ED000C001FF03FF07F307F30FF31EF33CF338B2
:103EE000F3787FF03FE000000000000000000000D9
:103EF000E007F80F780F781F781F781F780FF00F02
:103F0000E00F801FC37FC3FBE7F3F7F1F7F0FFF08B
:103F10007FF03EF87F7CFF3FEF1F000000000000B5
:103F200000000000E003E003E003E003E003C0035F
:103F3000C0010000000000000000000000000000C0
:103F40000000000000000000000000000000000071
:103F500000000000000000003F007C00F001E001D4
:103F6000C003C00780078007800F000F000F000FFD
:103F7000000F000F000F800F80078007C007C003ED
:103F8000E001F0017C003F000F000000007E001FF8
:103F9000C007C003E001F001F000F000F800780075
:103FA00078007800780078007800F800F000F000E1
:103FB000F001E001C003C007001F007E0078000090
:103FC000E003C003C001CE39FF3F7F3F20037003F1
:103FD000F807780F3C1F38060000000000000000C2
:103FE00000000000000000000000000000000000D1
:103FF00000000000000000000000000000000000C1
:10400000C001C001C001C001C001C001C001FFFF6B
:10401000FFFFC001C001C001C001C001C00100001C
:104020000000000000000000000000000000000090
:104030000000000000000000000000000000000080
:1040400000000000000000000000E003E003E003C7
:10405000E003E001E001E001C00180030000000096
:104060000000000000000000000000000000000050
:104070000000FE3FFE3F00000000000000000000C6
:104080000000000000000000000000000000000030
:104090000000000000000000000000000000000020
:1040A0000000000000000000000000000000000010
:1040B0000000E003E003E003E00300000000000074
:1040C000000000000F000F001E001E003C003C001E
:1040D00078007800F000F000E001E001C003C003C8
:1040E00080078007000F000F001E001E003C003CF0
:1040F0000078007800F00000F007F80F7C1F3E3ECB
:104100001E3C1F7C1F7C0F780F780F780F780F787C
:104110000F780F781F7C1F7C1E3C3E3E7C1FF80FE3
:10412000F00700000000000000000000F000F007B1
:10413000F03FF03FF001F001F001F001F001F0017B
:10414000F001F001F001F001F001F001F001F001E7
:10415000F001FF3FFF3F00000000000000000000F2
:10416000E00FF83F7C3C3C003E003E003E003C003F
:104170003C007C00F800F001E003C0078007000F5E
:10418000001E003E003CFE3FFE3F0000000000001D
:1041900000000000F00FF81F7C1C3E003E003E00B7
:1041A0003C003C00F800F00FF80F7C003E001E00C1
:1041B0001E001E001E003E007C1CF81FE01F0000B9
:1041C00000000000000000007800F800F800F8018E
:1041D000F803F807F807780F781E781E783C78788F
:1041E0007878FFFFFFFF780078007800780078008B
:1041F000780000000000000000000000FC1FFC1F11
:10420000FC1F001E001E001E001E001EE01FF81FE7
:10421000FC007C003E003E001E003E003E003C00D4
:104220007C1CF81FE01F00000000000000000000E0
:10423000FC01FE078E0F001F001E003E003C003CEC
:10424000F83DFC3F3E7F1F7E0F3C0F3C0F3C0F3C78
:104250000F3E1F1E3E1FFC0FF00300000000000079
:1042600000000000FF3FFF3FFF3F0F001E001E0049
:104270003C0038007800F000F000E001E001C003ED
:10428000C0038007800F800F000F001F001F000079
:104290000000000000000000F807FC0F3E1F1E1E7B
:1042A0001E3E1E3E1E1E3C1FF80FF007F80FFC1EA0
:1042B0003E3E1F3C1F7C0F7C0F7C1F3C3E3FFC1F83
:1042C000F00700000000000000000000F007F80FF9
:1042D0007C1E3E3C1E3C1F7C1F7C1F7C1F7C1F3CA9
:1042E0003F3EFF1FEF071F001E001E003E003C0068
:1042F000F838F03FE01F0000000000000000000060
:10430000000000000000000000000000E003E003E7
:10431000E003E003000000000000000000000000D7
:104320000000E003E003E003E00300000000000001
:10433000000000000000000000000000000000007D
:10434000E003E003E003E0030000000000000000E1
:10435000000000000000E003E003E003E003E001F0
:10436000E001E001C0038003000000000000000045
:104370000000000003000F003F00FC00F003C00F2E
:10438000003F00FE003FC00FF003FC003F000F00A5
:10439000030000000000000000000000000000001A
:1043A000000000000000000000000000000000000D
:1043B000FFFFFFFF000000000000FFFFFFFF000005
:1043C00000000000000000000000000000000000ED
:1043D00000000000000000000000000000E000F805
:1043E000007E801FE007F8017E001F007E00F801BC
:1043F000E007801F007E00F800E0000000000000E1
:1044000000000000F01FFC3F3E381F381F381E0020
:104410001E003C007800F000E001C003C003C007AC
:10442000C007000000000000C007C007C007000070
:104430000000000000000000F803FE0F1E1F0F3EEA
:104440007F3CFF78EF79C773C7F38FF38FF38FF358
:104450009FF39FF3FF73FF7BF779003C1C1FFC0F5A
:10446000F803000000000000000000000000000051
:104470000000E003E003F007F007F007780F780F83
:104480007C0E3C1E3C1E3E3CFE3FFF3F1F780F78DB
:104490000FF007F007F0000000000000000000002F
:1044A000000000000000F83FFC3F3E3C1E3C1E3C6C
:1044B0001E3C3E3C7C3CF03FF83F7E3C1F3C1F3C9A
:1044C0000F3C0F3C1F3CFE3FF83F00000000000087
:1044D00000000000000000000000FF01FF07871F30
:1044E000003E003C007C007800780078007800787E
:1044F000007C007C003E003F831FFF07FF0100009F
:104500000000000000000000000000000000F07F3C
:10451000FC7F7E781F781F780F780F780F780F78E0
:104520000F780F780F780F781F781E787E78F87FD5
:10453000E07F00000000000000000000000000001C
:104540000000FF3FFF3F003E003E003E003E003EB9
:10455000003EFE3FFE3F003E003E003E003E003E6D
:10456000003EFF3FFF3F0000000000000000000091
:10457000000000000000FF1FFF1F001E001E001EA5
:10458000001E001E001EFF1FFF1F001E001E001E3B
:10459000001E001E001E001E001E00000000000085
:1045A00000000000000000000000FE03FF0F871F56
:1045B000003E007C007C007800F800F87FF87FF86F
:1045C0000F780F7C0F7C0F3E8F1FFF0FFE03000044
:1045D00000000000000000000000000000001F7C40
:1045E0001F7C1F7C1F7C1F7C1F7C1F7C1F7CFF7F10
:1045F000FF7F1F7C1F7C1F7C1F7C1F7C1F7C1F7C00
:104600001F7C00000000000000000000000000000F
:104610000000FF3FFF3FE003E003E003E003E003AF
:10462000E003E003E003E003E003E003E003E00372
:10463000E003FF3FFF3F000000000000000000001B
:10464000000000000000FC1FFC1F7C007C007C00C0
:104650007C007C007C007C007C007C007C007C007A
:1046600078007800F838F03FC03F000000000000FC
:10467000000000000000000000001F3C1E3C3C3C0D
:10468000783CF03CE03DE03FC03F803FC03FE03F32
:10469000F03DF03C783C7C3C3E3C1F3C0F3C000035
:1046A0000000000000000000000000000000003ECC
:1046B000003E003E003E003E003E003E003E003E0A
:1046C000003E003E003E003E003E003E003EFF3FFA
:1046D000FF3F00000000000000000000000000009C
:1046E00000001FF81FFC1FFC3FFE3FFE3FFE7FFF48
:1046F00077FF77FFF7F7E7F7E7F3E7F3C7F307F09D
:1047000007F007F007F000000000000000000000C4
:104710000000000000000F7C0F7C0F7E0F7F0F7FDA
:104720008F7F8F7FCF7FEF7BEF79FF79FF78FF78E7
:104730007F783F783F781F781F78000000000000E6
:1047400000000000000000000000F007FC1F3E3EDB
:104750001F7C0F780F780FF80FF80FF80FF80FF88D
:104760000FF80F780F781F7C3E3EFC1FF00700000B
:104770000000000000000000000000000000FC3FFE
:10478000FF3F1F3E0F3E0F3E0F3E0F3E1F3E3F3E80
:10479000FC3FF03F003E003E003E003E003E003E3B
:1047A000003E0000000000000000000000000000CB
:1047B0000000F007FC1F3E3E1F7C0F780F780FF8BB
:1047C0000FF80FF80FF80FF80FF80F780F781F7C1D
:1047D0003E3EFC1FF8077C003F000F000300000076
:1047E000000000000000F03FFC3F7E3C3E3C1E3CD1
:1047F0001E3C3E3C3C3CFC3CF03FE03FF03DF83C86
:104800007C3C3E3C1E3C1F3C0F3C00000000000076
:1048100000000000000000000000FC07FE1F0E3E2C
:10482000003C003C003C003EC01FF80FFE037F0030
:104830001F000F000F001F203E3CFC3FF01F000038
:104840000000000000000000000000000000FFFF6A
:10485000FFFFE003E003E003E003E003E003E00325
:10486000E003E003E003E003E003E003E003E00330
:10487000E003000000000000000000000000000055
:1048800000000F7C0F7C0F7C0F7C0F7C0F7C0F7C5B
:104890000F7C0F7C0F7C0F7C0F7C0F7C1E3C1E3C22
:1048A0003E3EFC1FF007000000000000000000007A
:1048B00000000000000007F007F007F80F780F7CF9
:1048C0001E3C1E3C1E3E3C1E3C1F781F780FF80FFE
:1048D000F007F007F007E003E0030000000000002D
:1048E0000000000000000000000003E003F003F0FF
:1048F00007F0E7F3E7F3E7F3E773F77BF77FFF7F73
:104900007F7F7F7F7E7F7E3F3E3E3E3E3E3E00007D
:10491000000000000000000000000000000007F898
:104920000F7C1E3E3E3E3C1FF80FF007E007E00301
:10493000E003F007F80F7C0F7C1E3E3C1F780F78D9
:104940000FF0000000000000000000000000000068
:10495000000007F807780F7C1E3C1E3E3C1F780FB6
:10496000F80FF007E003E003E003E003E003E003F7
:10497000E003E003E003000000000000000000008E
:10498000000000000000FF7FFF7F0F001F003E00BF
:104990007C00F800F000E001E003C007800F000F8A
:1049A000001E003E007CFF7FFF7F00000000000033
:1049B00000000000FF07800780078007800780074E
:1049C00080078007800780078007800780078007AF
:1049D000800780078007800780078007800780079F
:1049E0008007FF07FF07000000780078003C003CCC
:1049F000001E001E000F000F80078007C003C003C9
:104A0000E001E001F000F000780078003C003C009C
:104A10001E001E000F000F0007000000F07FF000D6
:104A2000F000F000F000F000F000F000F000F00006
:104A3000F000F000F000F000F000F000F000F000F6
:104A4000F000F000F000F000F000F07FF07F0000D8
:104A5000C000C001C001E003E003F007F0077807E1
:104A6000780F380F3C1E3C1E1E3C1E3C0F380F7842
:104A700007780000000000000000000000000000B7
:104A80000000000000000000000000000000000026
:104A90000000000000000000000000000000000016
:104AA0000000000000000000000000000000FFFF08
:104AB000FFFF000000000000F00000000000000008
:104AC00000000000000000000000000000000000E6
:104AD00000000000000000000000000000000000D6
:104AE00000000000000000000000000000000000C6
:104AF0000000000000000000F80FFC3F7C3C3E007E
:104B00003E003E00FE07FE1F3E3E3E7C3E783E7C61
:104B10007E7CFF3FCF1F000000000000000000006F
:104B2000003C003C003C003C003C003CF83DFE3FAB
:104B30003E3F1F3E0F3C0F3C0F3C0F3C0F3C0F3CD9
:104B40001F3C1E3C3E3FFC3FF03B000000000000CD
:104B50000000000000000000000000000000000055
:104B6000FE03FF0F871F003E003E003C007C007CE0
:104B7000007C003C003E003E871FFF0FFE0300004C
:104B800000000000000000001F001F001F001F00A9
:104B90001F001F00FF07FF1F3F3E1F3C1F7C1F7CA5
:104BA0001F7C1F781F781F7C1F7C3F3C7F3EFF1FB0
:104BB000DF0F000000000000000000000000000007
:104BC0000000000000000000F803FC0F3E1F1E3E26
:104BD0001F3C1F7CFF7FFF7F007C007C003C003E71
:104BE000071FFF0FFE030000000000000000000090
:104BF000FF01E103C003C007C007C007FF7FFF7FBD
:104C0000C007C007C007C007C007C007C007C0076C
:104C1000C007C007C007C007C007000000000000B1
:104C20000000000000000000000000000000000084
:104C3000EF07FF1F7F3E1F3C1F7C1F7C1F781F78E4
:104C40001F781F7C1F7C3F3C7F3EFF1FDF0F1E0035
:104C50001E001E007C38F83F003C003C003C003C3D
:104C6000003C003CFC3DFE3F9E3F1F3F1F3E1F3C63
:104C70001F3C1F3C1F3C1F3C1F3C1F3C1F3C1F3C5C
:104C80001F3C00000000000000000000F001F001E7
:104C90000000000000000000E07FE07FE001E00194
:104CA000E001E001E001E001E001E001E001E001FC
:104CB000E001E001E0010000000000000000000051
:104CC000F800F8000000000000000000F83FF83F86
:104CD000F800F800F800F800F800F800F800F80014
:104CE000F800F800F800F800F800F800F800F0000C
:104CF000F071E07F003C003C003C003C003C003C8C
:104D00001F3C3E3C7C3CF83CF03DE03DC03FC03F9A
:104D1000E03FF03DF83C7C3C3E3C1F3C1F3C00002B
:104D20000000000000000000F07FF001F001F00141
:104D3000F001F001F001F001F001F001F001F001EB
:104D4000F001F001F001F001F001F001F001F001DB
:104D5000F001000000000000000000000000000062
:104D600000000000000000009EF7FFFFFFFFFFFFB4
:104D7000E7FBE7F9C7F1C7F1C7F1C7F1C7F1C7F121
:104D8000C7F1C7F1C7F100000000000000000000FB
:104D9000000000000000000000000000FC3DFE3F9D
:104DA0009E3F1F3F1F3E1F3C1F3C1F3C1F3C1F3CA4
:104DB0001F3C1F3C1F3C1F3C1F3C0000000000002C
:104DC00000000000000000000000000000000000E3
:104DD000F007FC1F3E3E1F3C1F7C0F780F780F78BA
:104DE0000F780F781F7C1F3C3E3EFC1FF007000031
:104DF00000000000000000000000000000000000B3
:104E000000000000F83DFE3F3E3F1F3E0F3C0F3CC0
:104E10000F3C0F3C0F3C0F3C1F3C1E3E3E3FFC3FF7
:104E2000F83F003C003C003C003C003C000000001F
:104E30000000000000000000EE07FE1F7E3E1E3C4A
:104E40001E7C1E781E781E781E781E781E7C3E7C86
:104E50007E3EFE1FDE0F1E001E001E001E001E00F6
:104E60000000000000000000000000007F1FFF1F86
:104E7000E71FC71F871F001F001F001F001F001F05
:104E8000001F001F001F001F001F00000000000087
:104E90000000000000000000000000000000000012
:104EA000FC07FE1F0E1E003E003E003FE01FFC07F9
:104EB000FE003E001E001E003E3CFC3FF01F0000B6
:104EC000000000000000000000000000000080075B
:104ED00080078007FF7FFF7F8007800780078007AC
:104EE000800780078007800780078007C007FF03CF
:104EF000FF010000000000000000000000000000B2
:104F000000000000000000001E3C1E3C1E3C1E3C39
:104F10001E3C1E3C1E3C1E3C1E3C1E3C3E3C7E3C41
:104F2000FE3EFE1FDE0F000000000000000000003B
:104F300000000000000000000000000007F00F78F3
:104F40000F781E3C1E3C1E3E3C1E3C1E780F780F08
:104F5000F00FF007F007E003E0030000000000009E
:104F60000000000000000000000000000000000041
:104F700003F0E3F1E3F3E7F3F7F3F7F3F77F777F7A
:104F80007F7F7F7F7F7F3E3E3E3E3E3E3E3E000037
:104F90000000000000000000000000000000000011
:104FA000000000000F7C1E3E3C3E3C1FF80FF00747
:104FB000F007E003F007F807F80F7C1E3E3E1F3CA9
:104FC0001F7800000000000000000000000000004A
:104FD000000000000000000007F80F780F7C1E3C66
:104FE0001E3C3C1E3C1E3C1F780FF80FF007F007DC
:104FF000E003E003C003C003C0038007800F007F0D
:10500000000000000000000000000000FF3FFF3F24
:105010001F003E007C00F800F001E003C007800F95
:10502000001F001E003CFF7FFF7F0000000000000B
:1050300000000000FE01E003C003C003C003C00382
:10504000E001E001E001C001C003803F803FC003F8
:10505000C001E001E001E001C003C003C003C003E0
:10506000E003FE017E000000C001C001C001C001DC
:10507000C001C001C001C001C001C001C001C00128
:10508000C001C001C001C001C001C001C001C00118
:10509000C001C001C001C001C0010000C03FE00369
:1050A000E001E001E001E001C001C003C003C00174
:1050B000E001FE00FE00E001C001C003C003C0012A
:1050C000E001E001E001E001E003C03F003F00003B
:1050D00000000000000000000000000000000000D0
:1050E000000000000000073FC77FE773FFF17EF07C
:1050F00000000000000000000000000000000000B0
:105100000000000000000000000000000102030495
:105110000607080900000000010203043C510008D2
:10512000000000203800000004200008745100082E
:1051300038000020200B00001420000800000000B0
:1051400000000000070A0000F02800080B12000011
:105150005C300008101A0000B83D00080100000093
:1051600010000000000000000024F4000000000017
:04517000000000003B
:04000005080000ED02
:00000001FF
